:100000000C9461000C947E000C947E000C947E0095
:100010000C947E000C947E000C947E000C947E0068
:100020000C947E000C947E000C947E000C947E0058
:100030000C947E000C947E000C947E000C947E0048
:100040000C945F010C947E000C947E000C947E0056
:100050000C947E000C947E000C947E000C947E0028
:100060000C947E000C947E00000000080002010049
:100070000003040700000000000000000102040863
:100080001020408001020408102001020408102002
:10009000040404040404040402020202020203032E
:1000A00003030303000000002300260029000000D2
:1000B0000000250028002B0000000000240027007D
:1000C0002A0011241FBECFEFD8E0DEBFCDBF11E064
:1000D000A0E0B1E0EAE2F6E002C005900D92AC309B
:1000E000B107D9F721E0ACE0B1E001C01D92A73122
:1000F000B207E1F70E9403030C9413030C94000071
:10010000EF92FF920F931F93CF93DF938AE0E82E35
:1001100081E0F82E61E0F70180810E946A0208E028
:1001200011E061E0F80180810E946A02C6E0D1E03E
:1001300061E088810E946A0261E0809104010E946E
:100140006A0261E0809102010E946A0260E080918F
:1001500000010E946A0260E0F70180810E94A30210
:1001600060E0F80180810E94A30260E08881DF9155
:10017000CF911F910F91FF90EF900C94A3021092DA
:100180000D0110920C0160E0809102010E94A30217
:1001900061E080910A010E94A30261E08091040164
:1001A0000E94A30268E873E180E090E00E94CC0125
:1001B00060E0809104010E94A30268EE73E080E099
:1001C00090E00E94CC0161E0809104010E94A302B2
:1001D00068EE73E080E090E00E94CC0160E08091E6
:1001E00004010E94A30261E0809102010E94A30227
:1001F00061E0809108010E94A30268EE73E080E054
:1002000090E00E94CC0160E080910A010E94A3026C
:1002100061E0809108010E94A30260E080910801E2
:100220000E94A30261E0809106010E94A3028091D6
:100230000C0190910D018034910534F480910001FE
:100240000E94D902892B59F160E0809106010E9439
:10025000A30268EE73E080E090E00E94CC0161E0D0
:10026000809106010E94A30268EE73E080E090E0B6
:100270000E94CC0160E0809106010E94A30261E02F
:10028000809108010E94A30260ED77E080E090E099
:100290000E94CC0160E0809108010C94A3026DE7FC
:1002A00070E080E090E00E94CC0180910C01909180
:1002B0000D01019690930D0180930C01B8CF1F9210
:1002C0000F920FB60F9211242F933F938F939F930A
:1002D000AF93BF9380910F0190911001A0911101F4
:1002E000B091120130910E0123E0230F2D3720F43D
:1002F0000196A11DB11D05C026E8230F0296A11D80
:10030000B11D20930E0180930F0190931001A093D3
:100310001101B09312018091130190911401A091E9
:100320001501B09116010196A11DB11D8093130115
:1003300090931401A0931501B0931601BF91AF9152
:100340009F918F913F912F910F900FBE0F901F9013
:1003500018953FB7F8948091130190911401A091E2
:100360001501B091160126B5A89B05C02F3F19F0C5
:100370000196A11DB11D3FBF6627782F892F9A2FA7
:10038000620F711D811D911D42E0660F771F881F4E
:10039000991F4A95D1F708958F929F92AF92BF927D
:1003A000CF92DF92EF92FF926B017C010E94A90134
:1003B0004B015C01C114D104E104F104F1F00E948D
:1003C00012030E94A901681979098A099B09683EEC
:1003D00073408105910570F321E0C21AD108E1084C
:1003E000F10888EE880E83E0981EA11CB11CC11490
:1003F000D104E104F10429F7DDCFFF90EF90DF9005
:10040000CF90BF90AF909F908F900895789484B5CF
:10041000826084BD84B5816084BD85B5826085BD00
:1004200085B5816085BDEEE6F0E0808181608083E6
:10043000E1E8F0E0108280818260808380818160C9
:100440008083E0E8F0E0808181608083E1EBF0E090
:10045000808184608083E0EBF0E080818160808334
:10046000EAE7F0E08081846080838081826080831D
:100470008081816080838081806880831092C10048
:100480000895833081F028F4813099F08230A1F012
:1004900008958730A9F08830B9F08430D1F4809184
:1004A00080008F7D03C0809180008F7780938000D3
:1004B000089584B58F7702C084B58F7D84BD08957B
:1004C0008091B0008F7703C08091B0008F7D8093C2
:1004D000B0000895CF93DF9390E0FC01E458FF4F04
:1004E0002491FC01E057FF4F8491882349F190E06B
:1004F000880F991FFC01E854FF4FA591B4918255D4
:100500009F4FFC01C591D4919FB7611108C0F89429
:100510008C91209582238C93888182230AC062303B
:1005200051F4F8948C91322F309583238C938881E9
:10053000822B888304C0F8948C91822B8C939FBF6C
:10054000DF91CF9108950F931F93CF93DF931F9265
:10055000CDB7DEB7282F30E0F901E859FF4F84917D
:10056000F901E458FF4F1491F901E057FF4F04914E
:100570000023C9F0882321F069830E944102698128
:10058000E02FF0E0EE0FFF1FE255FF4FA591B49171
:100590009FB7F8948C91611103C01095812301C01D
:1005A000812B8C939FBF0F90DF91CF911F910F9163
:1005B0000895CF93DF93282F30E0F901E859FF4FDA
:1005C0008491F901E458FF4FD491F901E057FF4FAE
:1005D000C491CC2391F081110E944102EC2FF0E0F4
:1005E000EE0FFF1FEC55FF4FA591B4912C912D23D9
:1005F00081E090E021F480E002C080E090E0DF91B3
:10060000CF91089508950E9406020E9402030E945D
:100610008000C0E0D0E00E94BF002097E1F30E947C
:0A0620000000F9CF0895F894FFCF11
:0C062A00050007000600080009000A0097
:00000001FF
